:020000040800F2
:1000000000500020D11B0008E11A0008E71A000880
:10001000ED1A0008F31A0008F91A000800000000A1
:10002000000000000000000000000000FF1A0008AF
:100030000B1B000800000000171B0008231B000812
:10004000191C0008191C0008191C0008191C0008BC
:10005000191C0008191C0008191C0008191C0008AC
:10006000191C0008191C0008191C0008191C00089C
:10007000191C0008191C0008191C0008191C00088C
:10008000191C0008191C0008191C0008191C00087C
:10009000191C0008191C0008191C0008191C00086C
:1000A000191C0008191C0008191C0008191C00085C
:1000B000311B0008191C0008191C0008191C000835
:1000C000191C0008191C0008191C0008191C00083C
:1000D000191C0008191C0008451B0008191C000801
:1000E000191C0008191C0008191C00080000000059
:1000F0000000000000000000000000000000000000
:0C01000000000000000000005FF808F1A3
:10010C0010B5054C237833B9044B13B10448AFF345
:10011C0000800123237010BD90000020000000001F
:10012C003C4D000808B5034B1BB103490348AFF322
:10013C00008008BD00000000940000203C4D000829
:10014C0080B500AF2E4B1B68002B4ED02D4B1A6880
:10015C002D4B1B685A632D4B1B68DA0F13445B1035
:10016C00184601F09FFA2A4B1B68B3F5967F1DDAEF
:10017C00244B1A6813465B001344224A1360244B29
:10018C001B68002B07DD224B1B68224A82FB0312E3
:10019C00DB17D31A07E01D4B1B681F4A82FB0312A7
:1001AC005210DB17D31A194A136009E0154B1B6860
:1001BC006433144A1360154B1B68643B134A136079
:1001CC00104B1B68B3F57A7F03DB0E4B4FF47A723E
:1001DC001A600E4B1B68642B02DC0C4B64221A60F9
:1001EC000A4B1B68184601F041FA0C4B1B68002B9C
:1001FC0003D0054B1B6800225A6300BF80BD00BFB3
:10020C0044010020F000002074010020EC000020CC
:10021C0028010020ABAAAA2A676666664C0100205A
:10022C0080B500AFA24B1B68042B00F2C18101A268
:10023C0052F823F0550200087D020008390300082B
:10024C0007040008F9040008022000F08FFF994B06
:10025C001B68184601F09AF9974B1B68184601F079
:10026C00B1F90A2001F0E6F9914B01221A60A8E1DC
:10027C00002000F001FF012000F07EFE00F0B2FC37
:10028C008E4B1B68012B07D18D4B1B68184601F058
:10029C007DF9874B02221A60002000F02DFE0346E8
:1002AC00002B11D040F2145001F0E0F944F620601C
:1002BC0001F0A4F9834B0A221A60834B40F21452CA
:1002CC001A60824B32221A60022000F015FE03469F
:1002DC00002B15D0764B0B221A607A4B4FF0FF3265
:1002EC001A607B4B1B687B4A1360724B1B687A4A03
:1002FC001360734B1B68794A13600C2001F00AFAE7
:10030C00012000F0F9FD0346002B00F05381684BEF
:10031C0005221A606B4B4FF0FF321A6042F21070DC
:10032C0001F014FA0A2001F085F943E1002000F0F5
:10033C0063FE012000F020FE00F054FC5F4B1B68B4
:10034C00012B10D1664B1B68012B0CD1604B1B6829
:10035C00184601F01BF9634B1B68184601F032F983
:10036C00534B03221A60002000F0C6FD0346002BFD
:10037C0011D040F2145001F079F944F6206001F0EC
:10038C003DF9504B0A221A604F4B40F214521A603E
:10039C004E4B32221A60022000F0AEFD0346002BB9
:1003AC0015D0434B0B221A60464B4FF0FF321A60AC
:1003BC00474B1B68474A13603E4B1B68464A136009
:1003CC003F4B1B68454A13600C2001F0A3F9012038
:1003DC0000F092FD0346002B00F0EE80344B062219
:1003EC001A60384B4FF0FF321A6042F2107001F075
:1003FC00ADF90A2001F01EF9DEE0002000F0BCFD92
:10040C00012000F039FE00F0EDFB354B1B68012B91
:10041C0007D1354B1B68184601F0D4F8244B042245
:10042C001A60002000F068FD0346002B0DD044F646
:10043C00206001F0E3F8234B09221A60224B40F2B2
:10044C0014521A60214B32221A60022000F054FD23
:10045C000346002B15D0164B0B221A60194B4FF08C
:10046C00FF321A601A4B1B681A4A1360114B1B6837
:10047C00194A1360124B1B68184A13600C2001F0C8
:10048C0049F9012000F038FD0346002B00F096805E
:10049C00074B07221A600B4B4FF0FF321A6042F2E7
:1004AC00107001F053F90A2001F0C4F886E000BF87
:1004BC00E80000201000002014000020240100207F
:1004CC000C00002004000020EC000020F0000020B4
:1004DC0008000020F4000020F8000020FC000020A0
:1004EC002C0100201C00002018000020002000F02F
:1004FC0043FD012000F080FD00F074FB324B1B68C3
:10050C00012B10D1314B1B68012B0CD1304B1B68CC
:10051C00184601F03BF82F4B1B68184601F052F8B7
:10052C002D4B01221A60002000F0E6FC0346002B44
:10053C000DD044F6206001F061F8284B09221A60B6
:10054C00274B40F214521A60264B32221A600220BA
:10055C0000F0D2FC0346002B15D01F4B0B221A6067
:10056C001E4B4FF0FF321A601F4B1B681F4A136063
:10057C00174B1B681E4A13601E4B1B681E4A1360E8
:10058C000C2001F0C7F8012000F0B6FC0346002B4C
:10059C0016D0114B08221A60104B4FF0FF321A6024
:1005AC0042F2107001F0D2F80A2001F043F807E093
:1005BC0000BF06E000BF04E000BF02E000BF00E0A7
:1005CC0000BF00BF80BD00BF240100202C01002013
:1005DC001000002014000020E8000020040000207F
:1005EC00EC000020F000002008000020F4000020A7
:1005FC00F80000200C000020FC00002080B500AFAB
:10060C00AF4B1B68053B032B00F24E8101A252F845
:10061C0023F000BF31060008D30600087507000858
:10062C0015080008002000F027FD012000F0A4FCB4
:10063C00012000F061FC0346002B06D042F2107042
:10064C0001F084F89E4B06221A609E4B1B68012B0E
:10065C000FD19B4B02221A609B4B1B68184600F073
:10066C0095FF994B1B68184600F0ACFF0A2000F070
:10067C00E1FF032000F040FC0346002B0FD0904B11
:10068C0002221A60904B1B68184600F07FFF8E4BBD
:10069C001B68184600F096FF0A2000F0CBFF0220E2
:1006AC0000F04AFC0346002B02D0854B00221A6056
:1006BC00022000F021FC0346002B00F0F780804B59
:1006CC0000221A60F2E0002000F096FC012000F0FD
:1006DC0053FC012000F010FC0346002B06D042F224
:1006EC00107001F033F8764B07221A60754B1B68BB
:1006FC00012B0FD1724B03221A60744B1B681846E6
:10070C0000F060FF724B1B68184600F03FFF0A2098
:10071C0000F090FF032000F0EFFB0346002B0FD0FE
:10072C00674B03221A60694B1B68184600F04AFF9E
:10073C00674B1B68184600F029FF0A2000F07AFF6F
:10074C00022000F0F9FB0346002B02D05C4B002288
:10075C001A60022000F0D0FB0346002B00F0A880AA
:10076C00574B00221A60A3E0002000F005FC01208A
:10077C0000F082FC012000F0BFFB0346002B06D0EA
:10078C0042F2107000F0E2FF4D4B08221A604D4B04
:10079C001B68012B0FD14A4B04221A604D4B1B686E
:1007AC00184600F0F3FE4B4B1B68184600F00AFF8E
:1007BC000A2000F03FFF032000F09EFB0346002BB5
:1007CC000FD03F4B04221A60424B1B68184600F0B6
:1007DC00DDFE404B1B68184600F0F4FE0A2000F0CA
:1007EC0029FF022000F0A8FB0346002B02D0344B5B
:1007FC0000221A60022000F07FFB0346002B59D028
:10080C002F4B00221A6055E0002000F0B5FB0120B0
:10081C0000F0F2FB012000F06FFB0346002B06D02A
:10082C0042F2107000F092FF254B05221A60254B06
:10083C001B68012B0FD1224B01221A60264B1B681F
:10084C00184600F0BFFE254B1B68184600F09EFEB4
:10085C000A2000F0EFFE032000F04EFB0346002BB5
:10086C000FD0174B01221A601B4B1B68184600F067
:10087C00A9FE1A4B1B68184600F088FE0A2000F0EF
:10088C00D9FE022000F058FB0346002B02D00C4B83
:10089C0000221A60022000F02FFB0346002B0BD025
:1008AC00074B00221A6007E000BF06E000BF04E01F
:1008BC0000BF02E000BF00E000BF00BF80BD00BF72
:1008CC00E8000020640100200C0000201C00002027
:1008DC000800002018000020140000201000002048
:1008EC0080B500AF284B1B68092B1ED00A2B37D1C3
:1008FC00012000F001FCFFF723FC244B1B68012BAB
:10090C0003D1214B4FF0FF321A60214B1B68032B94
:10091C0003D01F4B1B68042B30D11B4B09221A60D0
:10092C001C4B1B6800225A6328E0002000F0E4FBFB
:10093C00174B1B68012B03D0154B1B68022B06D1E0
:10094C00114B0A221A6040F2145000F08FFE0F4B2C
:10095C001B68012B14D10C4B4FF0FF321A600FE0C7
:10096C00022000F0C9FB0C4B00221A600B4B00223A
:10097C001A60084B1B6800225A6302E000BF00E0BB
:10098C0000BF00BF80BD00BF040000203401002068
:10099C00E800002074010020EC000020F000002092
:1009AC0080B500AF834B1B680D2B59D00D2B00F37A
:1009BC00F7800B2B03D00C2B00F0A280F0E0022070
:1009CC0000F0BAFA0346002B07D07B4B1B6803F5EB
:1009DC007A73794A136000F075F9022000F08CFAF2
:1009EC000346002B07D0744B1B68A3F57A73724A2D
:1009FC00136000F067F9032000F07EFA0346002B29
:100A0C0007D06D4B1B686D4A13606B4B1B686C4AAF
:100A1C0013606C4B1B68012B0DD1002000F0ACFA5D
:100A2C00012000F0A9FA4FF4FA7000F057FE4FF4D1
:100A3C007A7000F06FFE644B1B68012B02D1022010
:100A4C0000F09AFA012000F057FA0346002B00F050
:100A5C00A980584B0D221A600C2000F05BFEA1E01F
:100A6C00022000F069FA0346002B07D0574B1B6895
:100A7C0003F57A73554A136000F024F9022000F054
:100A8C003BFA0346002B07D0504B1B68A3F57A7337
:100A9C004E4A136000F016F9032000F02DFA0346BD
:100AAC00002B07D0494B1B68494A1360474B1B6806
:100ABC00484A1360434B1B68012B0DD1002000F0FA
:100ACC00DBFA012000F0D8FA4FF4FA7000F006FEC1
:100ADC004FF47A7000F01EFE3B4B1B68012B02D1C9
:100AEC00022000F0C9FA012000F006FA0346002BA0
:100AFC005AD0304B0C221A600C2000F00BFE53E045
:100B0C00022000F019FA0346002B07D0324B1B6869
:100B1C0003F57A73304A136000F0D4F8022000F029
:100B2C00EBF90346002B07D02B4B1B68A3F57A730C
:100B3C00294A136000F0C6F8032000F0DDF90346E3
:100B4C00002B07D0244B1B68244A1360224B1B68D4
:100B5C00234A13601B4B1B68012B0DD1002000F0A6
:100B6C004BFA012000F048FA4FF4FA7000F0B6FD91
:100B7C004FF47A7000F0CEFD134B1B68012B02D1A1
:100B8C00022000F039FA012000F0B6F90346002BE0
:100B9C000CD0084B00221A600C2000F0BBFD05E0C5
:100BAC0000BF04E000BF02E000BF00E000BF00BFD8
:100BBC0080BD00BFE8000020F400002008000020E9
:100BCC00140000205C01002054010020F8000020DB
:100BDC00100000201C000020FC0000200C00002055
:100BEC001800002080B500AF2A4B1B68002B4FD09B
:100BFC00294B1B68002B15D1284B1B68284A82FBFC
:100C0C0003125211DB17D31A1A462649264803F051
:100C1C0055FC03469AB24FF47A732349234802F0E9
:100C2C0090FF0BE02249204803F048FC03469AB29F
:100C3C004FF47A731C491D4802F083FF1D4B1B684F
:100C4C00002B15D11C4B1B68154A82FB0312521149
:100C5C00DB17D31A1A461949134803F02FFC034625
:100C6C009AB24FF47A731049104802F06AFF0BE005
:100C7C0013490D4803F022FC03469AB24FF47A73E1
:100C8C0009490A4802F05DFF4FF47A7000F0D2FC7B
:100C9C0000BF80BD3C010020240100202001002069
:100CAC001F85EB51544D0008000100200402002068
:100CBC006C4D00082C01002028010020844D0008F8
:100CCC009C4D000880B582B002AF154B1B68154ACD
:100CDC0082FB03129211DB17D11A134B1B68114ABA
:100CEC0082FB03029211DB17D01A104B1B680D4AC2
:100CFC0082FB03C29211DB17D31A009303460A46F8
:100D0C000B490C4803F0DAFB03469AB24FF47A73A2
:100D1C000849094802F015FF00BFBD4680BD00BF61
:100D2C00F4000020D34D6210F8000020FC000020DD
:100D3C00B44D0008000100200402002080B582B0F0
:100D4C0000AF78607B68032B22D801A252F823F005
:100D5C006D0D0008790D0008850D0008910D000837
:100D6C0001210E4801F0F8FA034612E002210B486B
:100D7C0001F0F2FA03460CE01021084801F0ECFAFD
:100D8C00034606E00121064801F0E6FA034600E0BE
:100D9C00012318460837BD4680BD00BF000801403E
:100DAC00000C014080B483B000AF7860044A7B68CB
:100DBC00012142F8231000BF0C37BD4680BC7047A0
:100DCC00B800002080B483B000AF7860044A7B6820
:100DDC00012142F8231000BF0C37BD4680BC704780
:100DEC00C800002080B582B000AF00237B6071E0AA
:100DFC003C4A7B68134419783B4A7B6813440A4687
:100E0C001A703A4A7B6813441978364A7B68134443
:100E1C000A461A707868FFF791FF03461946334A61
:100E2C007B6813440A461A702F4A7B6813441A785D
:100E3C002C497B680B441B789A4248D12B4A7B681F
:100E4C0013441A7827497B680B441B789A423ED18D
:100E5C00274A7B6813441A7823497B680B441B7818
:100E6C009A4217D0204A7B6813441978204A7B6831
:100E7C0013440A461A701C4A7B6813441B78002BD7
:100E8C0025D17868FFF78EFF1A4A7B68642142F8F7
:100E9C0023101CE0174A7B6852F823305A1E154960
:100EAC007B6841F82320134A7B6852F82330002BCF
:100EBC000DDC0D4A7B6813441B78002B02D178683B
:100ECC00FFF780FF0B4A7B68642142F823107B6894
:100EDC0001337B607B68032B8ADD00BF00BF0837C2
:100EEC00BD4680BDAC000020B0000020B400002046
:100EFC0000000020D800002080B483B000AF03466F
:100F0C00FB71FB79032B01D900230DE0FB79094A16
:100F1C0052F82330012B06D1FB79064A002142F806
:100F2C002310012300E0002318460C37BD4680BC7B
:100F3C00704700BFB800002080B483B000AF0346F8
:100F4C00FB71FB79032B01D9FF230DE0FB79094AD7
:100F5C0052F82330012B06D1FB79064A002142F8C6
:100F6C002310012300E0002318460C37BD4680BC3B
:100F7C00704700BFC800002080B582B000AF786019
:100F8C007B68002B03D07B68012B0CD016E0012270
:100F9C004FF48061164801F0F6F90022082115483B
:100FAC0001F0F1F920E001222021124801F0EBF9C7
:100FBC00002210210F4801F0E6F915E000224FF451
:100FCC0080610B4801F0DFF900220821094801F08B
:100FDC00DAF900222021074801F0D5F9002210216E
:100FEC00044801F0D0F900BF00BF0837BD4680BDF2
:100FFC0000080140000C014080B582B000AF786061
:10100C007B68002B03D07B68012B0CD016E00122EF
:10101C004FF48061164801F0B6F9012208211548F9
:10102C0001F0B1F920E001222021124801F0ABF9C6
:10103C00012210210F4801F0A6F915E000224FF40F
:10104C0080610B4801F09FF900220821094801F04A
:10105C009AF900222021074801F095F9002210216D
:10106C00044801F090F900BF00BF0837BD4680BDB1
:10107C0000080140000C014080B582B000AF7860E0
:10108C007B68002B03D07B68012B0CD016E0002270
:10109C004FF48061164801F076F9012208211548B9
:1010AC0001F071F920E000222021124801F06BF9C7
:1010BC00012210210F4801F066F915E000224FF4CF
:1010CC0080610B4801F05FF900220821094801F00A
:1010DC005AF900222021074801F055F9002210216D
:1010EC00044801F050F900BF00BF0837BD4680BD71
:1010FC0000080140000C014080B582B000AF786060
:10110C007B68002B03D07B68012B0DD019E00122EA
:10111C004FF48061134801F036F900224FF48071CE
:10112C00114801F030F919E000224FF480610D48AC
:10113C0001F029F901224FF480710B4801F023F9D9
:10114C000CE000224FF48061064801F01CF90022EB
:10115C004FF48071044801F016F900BF00BF083746
:10116C00BD4680BD000C01400008014080B582B036
:10117C0000AF78607B68002B03D07B68012B0CD010
:10118C0016E000224FF48061164801F0FCF80022B2
:10119C000821154801F0F7F820E000222021124820
:1011AC0001F0F1F8002210210F4801F0ECF815E0E5
:1011BC0000224FF480610B4801F0E5F80022082171
:1011CC00094801F0E0F800222021074801F0DBF883
:1011DC0000221021044801F0D6F800BF00BF0837E8
:1011EC00BD4680BD00080140000C014080B500AF39
:1011FC0000F00EFD00F014F800F040F900F052F889
:10120C0000F09CF800F010F9034801F03FFD0021BC
:10121C00024801F0E5FDFEE7BC010020740100204E
:10122C0080B590B000AF07F11803282200211846B2
:10123C0003F03CF93B1D00221A605A609A60DA6098
:10124C001A610223BB610123BB621023FB620223E0
:10125C007B630023BB634FF46013FB6307F118033C
:10126C00184601F0A9F80346002B01D000F088F9CC
:10127C000F237B600223BB600023FB604FF4806371
:10128C003B6100237B613B1D0221184601F014FBDE
:10129C000346002B01D000F073F900BF4037BD4668
:1012AC0080BD000080B586B000AF07F108030022B6
:1012BC001A605A609A60DA603B4600221A605A60E3
:1012CC001D4B4FF080421A601B4B41F63F725A6027
:1012DC00194B00229A60184B4F22DA60164B0022F1
:1012EC001A61154B00229A61134801F07FFC0346EA
:1012FC00002B01D000F044F94FF48053BB6007F190
:10130C00080319460C4801F0D3FF0346002B01D00B
:10131C0000F036F900233B6000237B603B46194606
:10132C00054802F051FB0346002B01D000F028F9D0
:10133C0000BF1837BD4680BDBC01002080B58EB003
:10134C0000AF07F1280300221A605A609A60DA6035
:10135C0007F1200300221A605A603B1D00221A601C
:10136C005A609A60DA601A615A619A612C4B2D4A64
:10137C001A602B4B3F225A60294B00229A60284B53
:10138C0040F2E732DA60264B00221A61244B00222D
:10139C009A61234801F02AFC0346002B01D000F08F
:1013AC00EFF84FF48053BB6207F1280319461C4831
:1013BC0001F07EFF0346002B01D000F0E1F8184845
:1013CC0001F0B6FC0346002B01D000F0D9F8002345
:1013DC003B6200237B6207F120031946104802F0A0
:1013EC00F3FA0346002B01D000F0CAF860237B60AF
:1013FC000023BB600023FB6000237B613B1D0022AC
:10140C001946074801F096FE0346002B01D000F068
:10141C00B7F8034800F0DAFA00BF3837BD4680BD94
:10142C00740100200004004080B500AF114B124A3B
:10143C001A60104B4FF416525A600E4B00229A60F1
:10144C000C4B0022DA600B4B00221A61094B0C2268
:10145C005A61084B00229A61064B0022DA6105485A
:10146C0002F022FB0346002B01D000F089F800BFEC
:10147C0080BD00BF040200200044004080B586B04F
:10148C0000AF07F1080300221A605A609A60DA6014
:10149C002E4B9B692D4A43F0040393612B4B9B69A4
:1014AC0003F004037B607B68284B9B69274A43F05D
:1014BC0008039361254B9B6903F008033B603B6871
:1014CC0000224FF48761224800F05DFF00224FF4A8
:1014DC00A061204800F057FF1323BB600023FB6082
:1014EC0001233B6107F1080319461A4800F0B0FDCF
:1014FC000123BB600023FB6001233B6107F1080360
:10150C001946134800F0A4FD4FF48763BB60012318
:10151C00FB6000233B6102237B6107F10803194642
:10152C000B4800F095FD4FF4A063BB600123FB60FA
:10153C0000233B6102237B6107F108031946054830
:10154C0000F086FD00BF1837BD4680BD001002407C
:10155C00000C01400008014080B582B000AF7860FB
:10156C0000F010F9FFF73EFCFEF75AFEFFF746F8C5
:10157C00FFF716FAFFF7B4F900BF0837BD4680BD78
:10158C0080B400AF72B600BFFEE7000080B483B039
:10159C0000AF78607B68084A82FB03129210DB175D
:1015AC00D31A064A1360064B00221A6000BF0C3790
:1015BC00BD4680BC704700BF676666662001002090
:1015CC002401002080B483B000AF78607B68084AA7
:1015DC0082FB03129210DB17D31A064A1360064BD8
:1015EC0000221A6000BF0C37BD4680BC704700BF9C
:1015FC0067666666280100202C01002080B483B049
:10160C0000AF78607B68084A82FB03129210DB17EC
:10161C00D31A064A1360064B00221A6000BF0C371F
:10162C00BD4680BC704700BF67666666300100200F
:10163C003401002080B483B000AF78607B68084A26
:10164C0082FB03129210DB17D31A064A1360064B67
:10165C0000221A6000BF0C37BD4680BC704700BF2B
:10166C0067666666380100203C01002080B483B0B8
:10167C0000AF78607B68084A82FB03129210DB177C
:10168C00D31A064A1360064B00221A6000BF0C37AF
:10169C00BD4680BC704700BF67666666400100208F
:1016AC004401002080B483B000AF78607B68084AA6
:1016BC0082FB03129210DB17D31A064A1360064BF7
:1016CC0000221A6000BF0C37BD4680BC704700BFBB
:1016DC0067666666480100204C01002080B483B028
:1016EC0000AF78607B68084A82FB03129210DB170C
:1016FC00D31A064A1360064B00221A6000BF0C373F
:10170C00BD4680BC704700BF67666666500100200E
:10171C005401002080B483B000AF78607B68084A25
:10172C0082FB03129210DB17D31A064A1360064B86
:10173C0000221A6000BF0C37BD4680BC704700BF4A
:10174C0067666666580100205C01002080B483B097
:10175C0000AF78607B68084A82FB03129210DB179B
:10176C00D31A064A1360064B00221A6000BF0C37CE
:10177C00BD4680BC704700BF67666666600100208E
:10178C006401002080B400AF494B1B68002B0BDDBB
:10179C00474B1B68013B464A1360454B1B68002BAB
:1017AC0002DC444B01221A60434B1B68002B0BDDFF
:1017BC00414B1B68013B404A13603F4B1B68002B9D
:1017CC0002DC3E4B01221A603D4B1B68002B0BDDEB
:1017DC003B4B1B68013B3A4A1360394B1B68002B8F
:1017EC0002DC384B01221A60374B1B68002B0BDDD7
:1017FC00354B1B68013B344A1360334B1B68002B81
:10180C0002DC324B01221A60314B1B68002B0BDDC2
:10181C002F4B1B68013B2E4A13602D4B1B68002B72
:10182C0002DC2C4B01221A602B4B1B68002B0BDDAE
:10183C00294B1B68013B284A1360274B1B68002B64
:10184C0002DC264B01221A60254B1B68002B0BDD9A
:10185C00234B1B68013B224A1360214B1B68002B56
:10186C0002DC204B01221A601F4B1B68002B0BDD86
:10187C001D4B1B68013B1C4A13601B4B1B68002B48
:10188C0002DC1A4B01221A60194B1B68002B0BDD72
:10189C00174B1B68013B164A1360154B1B68002B3A
:1018AC0002DC144B01221A6000BFBD4680BC70479D
:1018BC002001002024010020280100202C01002000
:1018CC003001002034010020380100203C010020B0
:1018DC004001002044010020480100204C01002060
:1018EC005001002054010020580100205C01002010
:1018FC00600100206401002080B485B000AF154B5E
:10190C009B69144A43F001039361124B9B6903F0EA
:10191C000103BB60BB680F4BDB690E4A43F080537D
:10192C00D3610C4BDB6903F080537B607B680A4B03
:10193C005B68FB60FB6823F0E063FB60FB6843F0D3
:10194C000073FB60044AFB68536000BF1437BD464C
:10195C0080BC7047001002400000014080B584B08C
:10196C0000AF78607B681B68B3F1804F14D1154BC6
:10197C00DB69144A43F00103D361124BDB6903F0BA
:10198C000103FB60FB68002200211C2000F079FAA7
:10199C001C2000F092FA10E07B681B680A4A934204
:1019AC000BD1084BDB69074A43F00203D361054BAB
:1019BC00DB6903F00203BB60BB6800BF1037BD4698
:1019CC0080BD00BF001002400004004080B588B00C
:1019DC0000AF786007F1100300221A605A609A6019
:1019EC00DA607B681B680F4A934217D10E4B9B69D8
:1019FC000D4A43F0040393610B4B9B6903F0040302
:101A0C00FB60FB6840233B6102237B610223FB618B
:101A1C0007F110031946054800F01AFB00BF2037E8
:101A2C00BD4680BD0004004000100240000801408B
:101A3C0080B588B000AF786007F1100300221A60FF
:101A4C005A609A60DA607B681B681F4A934237D1F0
:101A5C001E4BDB691D4A43F40033D3611B4BDB691E
:101A6C0003F40033FB60FB68184B9B69174A43F087
:101A7C0004039361154B9B6903F00403BB60BB68C3
:101A8C0004233B6102237B610323FB6107F11003F9
:101A9C0019460F4800F0DCFA08233B6100237B61F8
:101AAC000023BB6107F110031946094800F0D0FA76
:101ABC0000220021262000F0E4F9262000F0FDF998
:101ACC0000BF2037BD4680BD0044004000100240DE
:101ADC000008014080B400AFFEE780B400AFFEE721
:101AEC0080B400AFFEE780B400AFFEE780B400AF77
:101AFC00FEE780B400AF00BFBD4680BC704780B429
:101B0C0000AF00BFBD4680BC704780B400AF00BFC3
:101B1C00BD4680BC704780B500AF00F0BFF800BF79
:101B2C0080BD000080B500AF024801F0FBF900BF9A
:101B3C0080BD00BFBC01002080B500AF024802F0A0
:101B4C0093F800BF80BD00BF0402002080B586B0B2
:101B5C0000AF7860144A154BD31A7B617B693B61EB
:101B6C00134B1B68002B02D1114B124A1A60104BFD
:101B7C001A687B6813443A699A4207D202F06CFCEB
:101B8C0003460C221A604FF0FF3309E0084B1B6828
:101B9C00FB60074B1A687B681344054A1360FB68AB
:101BAC0018461837BD4680BD0050002000040000C8
:101BBC00680100206002002080B400AF00BFBD4669
:101BCC0080BC70470C480D490D4A002302E0D458E4
:101BDC00C4500433C4188C42F9D30A4A0A4C00236B
:101BEC0001E013600432A242FBD3FFF7E5FF02F0E1
:101BFC0039FCFFF7FBFA7047000000209000002032
:101C0C00384E0008900000205C020020FEE7000027
:101C1C0080B500AF084B1B68074A43F010031360F4
:101C2C00032000F023F90F2000F008F8FFF764FE02
:101C3C000023184680BD00BF0020024080B582B052
:101C4C0000AF7860124B1A68124B1B7819464FF490
:101C5C007A73B3FBF1F3B2FBF3F3184600F03BF9E4
:101C6C000346002B01D001230EE07B680F2B0AD812
:101C7C00002279684FF0FF3000F003F9064A7B68C8
:101C8C001360002300E0012318460837BD4680BDD1
:101C9C0020000020280000202400002080B400AF89
:101CAC00054B1B781A46054B1B681344034A1360FB
:101CBC0000BFBD4680BC70472800002048020020B1
:101CCC0080B400AF024B1B681846BD4680BC704701
:101CDC004802002080B485B000AF78607B6803F0C8
:101CEC000703FB600C4BDB68BB60BA684FF6FF0365
:101CFC001340BB60FB681A02BB68134343F0BF631D
:101D0C0043F40033BB60044ABB68D36000BF143794
:101D1C00BD4680BC704700BF00ED00E080B400AF52
:101D2C00044BDB681B0A03F007031846BD4680BC56
:101D3C00704700BF00ED00E080B483B000AF0346F5
:101D4C00FB7197F90730002B0BDBFB7903F01F02BB
:101D5C00064997F907305B09012000FA02F241F8B5
:101D6C00232000BF0C37BD4680BC704700E100E06B
:101D7C0080B483B000AF03463960FB7197F907302C
:101D8C00002B0ADB3B68DAB20C4997F907301201D9
:101D9C00D2B20B4483F800230AE03B68DAB208495C
:101DAC00FB7903F00F03043B1201D2B20B441A76F9
:101DBC0000BF0C37BD4680BC704700BF00E100E09F
:101DCC0000ED00E080B489B000AFF860B9607A60D3
:101DDC00FB6803F00703FB61FB69C3F10703042BEA
:101DEC0028BF0423BB61FB690433062B02D9FB69B2
:101DFC00033B00E000237B614FF0FF32BB6902FA2A
:101E0C0003F3DA43BB681A407B699A404FF0FF3109
:101E1C007B6901FA03F3D9437B680B4013431846E3
:101E2C002437BD4680BC704780B582B000AF786067
:101E3C007B68013BB3F1807F01D301230FE00A4A99
:101E4C007B68013B53600F214FF0FF30FFF790FF91
:101E5C00054B00229A60044B07221A600023184697
:101E6C000837BD4680BD00BF10E000E080B582B0F1
:101E7C0000AF78607868FFF72DFF00BF0837BD46CC
:101E8C0080BD80B586B000AF0346B9607A60FB7345
:101E9C0000237B61FFF742FF78617A68B968786943
:101EAC00FFF790FF024697F90F3011461846FFF7DF
:101EBC005FFF00BF1837BD4680BD80B582B000AF54
:101ECC000346FB7197F907301846FFF735FF00BF43
:101EDC000837BD4680BD80B582B000AF78607868A9
:101EEC00FFF7A2FF034618460837BD4680BD80B4F5
:101EFC0085B000AF78600023FB737B6893F82130CA
:101F0C00022B08D07B6804229A637B68002283F83A
:101F1C002020012320E07B681B681A687B681B6803
:101F2C0022F00E021A607B681B681A687B681B68BB
:101F3C0022F001021A607B681A6C7B68DB6B012152
:101F4C0001FA02F25A607B68012283F821207B6837
:101F5C00002283F82020FB7B18461437BD4680BC3A
:101F6C007047000080B584B000AF78600023FB732D
:101F7C007B6893F82130022B05D07B6804229A638E
:101F8C000123FB7351E07B681B681A687B681B6834
:101F9C0022F00E021A607B681B681A687B681B684B
:101FAC0022F001021A607B681B68224A934229D0F6
:101FBC007B681B68204A934222D07B681B681F4AAF
:101FCC0093421AD07B681B681D4A934212D07B68DF
:101FDC001B681C4A93420AD07B681B681A4A9342BE
:101FEC0002D14FF480130EE04FF080730BE04FF4EE
:101FFC00803308E04FF4805305E04FF4807302E027
:10200C00102300E00123114A53607B68012283F8FE
:10201C0021207B68002283F820207B685B6B002BDF
:10202C0003D07B685B6B78689847FB7B184610374E
:10203C00BD4680BD080002401C000240300002403A
:10204C0044000240580002406C0002400000024074
:10205C0080B48BB000AF7860396000237B620023C2
:10206C003B6269E101227B6A02FA03F3FB613B6884
:10207C001B68FA691340BB61BA69FB699A4240F06C
:10208C0058813B685B689A4A93425ED0984A934267
:10209C0075D8984A934258D0964A93426FD8964A2C
:1020AC00934252D0944A934269D8944A93424CD06A
:1020BC00924A934263D8924A934246D0904A9342B2
:1020CC005DD8122B2AD8122B59D801A252F823F022
:1020DC005721000831210008432100088521000800
:1020EC008B2100088B2100088B2100088B21000814
:1020FC008B2100088B2100088B2100088B21000804
:10210C008B2100088B2100088B2100088B210008F3
:10211C008B210008392100084D210008794A93428F
:10212C0013D02CE03B68DB683B6229E03B68DB6842
:10213C0004333B6224E03B68DB6808333B621FE0FE
:10214C003B68DB680C333B621AE03B689B68002BF6
:10215C0002D104233B6213E03B689B68012B05D141
:10216C0008233B627B68FA691A6109E008233B6229
:10217C007B68FA695A6103E000233B6200E000BF10
:10218C00BB69FF2B01D87B6801E07B6804337B6162
:10219C00BB69FF2B02D87B6A9B0002E07B6A083B81
:1021AC009B003B617B691A680F213B6901FA03F3C1
:1021BC00DB431A40396A3B6901FA03F31A437B6922
:1021CC001A603B685B6803F08053002B00F0B18011
:1021DC004D4B9B694C4A43F0010393614A4B9B69FD
:1021EC0003F00103BB60BB68484A7B6A9B0802335F
:1021FC0052F82330FB607B6A03F003039B000F2231
:10220C0002FA03F3DB43FA681340FB607B68404A35
:10221C00934213D07B683F4A93420DD07B683E4A71
:10222C00934207D07B683D4A934201D1032306E0D9
:10223C00042304E0022302E0012300E000237A6A75
:10224C0002F0030292009340FA681343FB602F499B
:10225C007B6A9B080233FA6841F823203B685B6871
:10226C0003F48033002B06D02D4B1A682C49BB6924
:10227C0013430B6006E02A4B1A68BB69DB43284901
:10228C0013400B603B685B6803F40033002B06D0F3
:10229C00234B5A682249BB6913434B6006E0204B21
:1022AC005A68BB69DB431E4913404B603B685B6853
:1022BC0003F48013002B06D0194B9A681849BB699C
:1022CC0013438B6006E0164B9A68BB69DB431449D9
:1022DC0013408B603B685B6803F40013002B21D028
:1022EC000F4BDA680E49BB691343CB6021E000BF8A
:1022FC0000003210000031100000221000002110EC
:10230C0000001210000011100010024000000140EB
:10231C0000080140000C0140001001400014014075
:10232C00000401400B4BDA68BB69DB4309491340DD
:10233C00CB607B6A01337B623B681A687B6A22FA4A
:10234C0003F3002B7FF48EAE00BF00BF2C37BD46CD
:10235C0080BC70470004014080B485B000AF786049
:10236C000B467B807B689A687B881340002B02D0DD
:10237C000123FB7301E00023FB73FB7B184614372E
:10238C00BD4680BC704780B483B000AF78600B460C
:10239C007B8013467B707B78002B03D07A887B681C
:1023AC001A6103E07B881A047B681A6100BF0C3742
:1023BC00BD4680BC7047000080B586B000AF786029
:1023CC007B68002B01D101236CE27B681B6803F056
:1023DC000103002B00F08780924B5B6803F00C0329
:1023EC00042B0CD08F4B5B6803F00C03082B12D121
:1023FC008C4B5B6803F48033B3F5803F0BD1894B76
:10240C001B6803F40033002B6CD07B685B68002BDB
:10241C0068D1012346E27B685B68B3F5803F06D147
:10242C00804B1B687F4A43F4803313602EE07B683B
:10243C005B68002B0CD17B4B1B687A4A23F48033EE
:10244C001360784B1B68774A23F4802313601DE0DC
:10245C007B685B68B3F5A02F0CD1724B1B68714A7B
:10246C0043F4802313606F4B1B686E4A43F4803334
:10247C0013600BE06B4B1B686A4A23F480331360C8
:10248C00684B1B68674A23F4802313607B685B6886
:10249C00002B13D0FFF714FC386108E0FFF710FC99
:1024AC0002463B69D31A642B01D90323FAE15D4B35
:1024BC001B6803F40033002BF0D014E0FFF700FC92
:1024CC00386108E0FFF7FCFB02463B69D31A642B2A
:1024DC0001D90323E6E1534B1B6803F40033002BB3
:1024EC00F0D100E000BF7B681B6803F00203002BF7
:1024FC0063D04C4B5B6803F00C03002B0BD0494BA7
:10250C005B6803F00C03082B1CD1464B5B6803F48F
:10251C008033002B16D1434B1B6803F00203002BB6
:10252C0005D07B681B69012B01D00123BAE13D4B1F
:10253C001B6823F0F8027B685B69DB0039491343A5
:10254C000B603AE07B681B69002B20D0364B0122D4
:10255C001A60FFF7B5FB386108E0FFF7B1FB0246E4
:10256C003B69D31A022B01D903239BE12D4B1B682A
:10257C0003F00203002BF0D02A4B1B6823F0F80267
:10258C007B685B69DB00274913430B6015E0264B26
:10259C0000221A60FFF794FB386108E0FFF790FB0C
:1025AC0002463B69D31A022B01D903237AE11D4B56
:1025BC001B6803F00203002BF0D17B681B6803F04F
:1025CC000803002B3AD07B689B69002B19D0174B62
:1025DC0001221A60FFF774FB386108E0FFF770FB0B
:1025EC0002463B69D31A022B01D903235AE10D4B46
:1025FC005B6A03F00203002BF0D0012000F0D8FA44
:10260C001CE00A4B00221A60FFF75AFB38610FE0FE
:10261C00FFF756FB02463B69D31A022B08D903235A
:10262C0040E100BF001002400000424280044242E0
:10263C009E4B5B6A03F00203002BE9D17B681B689D
:10264C0003F00403002B00F0A6800023FB75974BCE
:10265C00DB6903F08053002B0DD1944BDB69934A5B
:10266C0043F08053D361914BDB6903F08053BB6023
:10267C00BB680123FB758E4B1B6803F48073002B26
:10268C0018D18B4B1B688A4A43F480731360FFF795
:10269C0017FB386108E0FFF713FB02463B69D31ABE
:1026AC00642B01D90323FDE0814B1B6803F4807379
:1026BC00002BF0D07B68DB68012B06D17B4B1B6AAF
:1026CC007A4A43F0010313622DE07B68DB68002B30
:1026DC000CD1764B1B6A754A23F001031362734BC2
:1026EC001B6A724A23F0040313621CE07B68DB68EC
:1026FC00052B0CD16D4B1B6A6C4A43F0040313621F
:10270C006A4B1B6A694A43F0010313620BE0674B87
:10271C001B6A664A23F001031362644B1B6A634A0B
:10272C0023F0040313627B68DB68002B15D0FFF7E2
:10273C00C7FA38610AE0FFF7C3FA02463B69D31ABD
:10274C0041F28832934201D90323ABE0574B1B6A09
:10275C0003F00203002BEED014E0FFF7B1FA38615E
:10276C000AE0FFF7ADFA02463B69D31A41F2883210
:10277C00934201D9032395E04C4B1B6A03F00203EF
:10278C00002BEED1FB7D012B05D1484BDB69474A71
:10279C0023F08053D3617B68DB69002B00F08180D0
:1027AC00424B5B6803F00C03082B61D07B68DB6940
:1027BC00022B46D13F4B00221A60FFF781FA386199
:1027CC0008E0FFF77DFA02463B69D31A022B01D9C8
:1027DC00032367E0354B1B6803F00073002BF0D12B
:1027EC007B681B6AB3F5803F08D1304B5B6823F4E0
:1027FC0000327B689B682D4913434B602B4B5B6805
:10280C0023F474127B68196A7B685B6A0B43274953
:10281C0013434B60274B01221A60FFF751FA3861C2
:10282C0008E0FFF74DFA02463B69D31A022B01D997
:10283C00032337E01D4B1B6803F00073002BF0D013
:10284C002FE01C4B00221A60FFF73AFA386108E0BF
:10285C00FFF736FA02463B69D31A022B01D9032340
:10286C0020E0124B1B6803F00073002BF0D118E032
:10287C007B68DB69012B01D1012313E00B4B5B68F7
:10288C00FB60FB6803F480327B681B6A9A4206D1BA
:10289C00FB6803F470127B685B6A9A4201D00123D7
:1028AC0000E0002318461837BD4680BD00100240DA
:1028BC00007000406000424280B584B000AF786088
:1028CC0039607B68002B01D10123D0E06A4B1B6877
:1028DC0003F007033A689A4210D9674B1B6823F040
:1028EC00070265493B6813430B60634B1B6803F09D
:1028FC0007033A689A4201D00123B8E07B681B6851
:10290C0003F00203002B20D07B681B6803F0040348
:10291C00002B05D0594B5B68584A43F4E063536075
:10292C007B681B6803F00803002B05D0534B5B68D6
:10293C00524A43F460535360504B5B6823F0F002EF
:10294C007B689B684D4913434B607B681B6803F0A5
:10295C000103002B40D07B685B68012B07D1474BF0
:10296C001B6803F40033002B15D101237FE07B6837
:10297C005B68022B07D1414B1B6803F00073002BE3
:10298C0009D1012373E03D4B1B6803F00203002BBC
:10299C0001D101236BE0394B5B6823F003027B68A8
:1029AC005B68364913434B60FFF78AF9F8600AE01D
:1029BC00FFF786F90246FB68D31A41F2883293423C
:1029CC0001D9032353E02D4B5B6803F00C027B68A9
:1029DC005B689B009A42EBD1274B1B6803F0070303
:1029EC003A689A4210D2244B1B6823F00702224902
:1029FC003B6813430B60204B1B6803F007033A68DA
:102A0C009A4201D0012332E07B681B6803F0040377
:102A1C00002B08D0194B5B6823F4E0627B68DB6801
:102A2C00164913434B607B681B6803F00803002BAB
:102A3C0009D0124B5B6823F460527B681B69DB0086
:102A4C000E4913434B6000F021F802460B4B5B68B8
:102A5C001B0903F00F030A49CB5C22FA03F3094A62
:102A6C001360094B1B681846FFF7E8F8002318465B
:102A7C001037BD4680BD00BF002002400010024050
:102A8C00E44D0008200000202400002090B48AB0FF
:102A9C0000AF2A4B3C1D0FCB84E80F0040F2012302
:102AAC003B800023FB610023BB6100237B6200237E
:102ABC007B6100233B62224B5B68FB61FB6903F08B
:102ACC000C03042B02D0082B03D02DE01D4B3B62D2
:102ADC002DE0FB699B0C03F00F0307F12802134454
:102AEC0013F8243C7B61FB6903F48033002B13D077
:102AFC00134B5B685B0C03F0010307F128021344D2
:102B0C0013F8283CBB617B690E4A02FB03F2BB69DC
:102B1C00B2FBF3F37B6204E07B690B4A02FB03F329
:102B2C007B627B6A3B6202E0064B3B6200BF3B6A06
:102B3C0018462837BD4690BC704700BFD44D0008DE
:102B4C000010024000127A0000093D0080B400AF72
:102B5C00024B1B681846BD4680BC70472000002005
:102B6C0080B500AFFFF7F2FF0246054B5B681B0A0E
:102B7C0003F007030349CB5C22FA03F3184680BD2C
:102B8C0000100240F44D000880B500AFFFF7DEFFE7
:102B9C000246054B5B68DB0A03F007030349CB5C79
:102BAC0022FA03F3184680BD00100240F44D0008D1
:102BBC0080B485B000AF78600A4B1B680A4AA2FB50
:102BCC0003235B0A7A6802FB03F3FB6000BFFB681C
:102BDC005A1EFA60002BF9D100BF00BF1437BD4656
:102BEC0080BC704720000020D34D621080B582B0AD
:102BFC0000AF78607B68002B01D1012341E07B683A
:102C0C0093F83D30DBB2002B06D17B68002283F8B1
:102C1C003C207868FEF7A2FE7B68022283F83D20F8
:102C2C007B681A687B6804331946104600F028FC50
:102C3C007B68012283F846207B68012283F83E20C2
:102C4C007B68012283F83F207B68012283F84020B7
:102C5C007B68012283F841207B68012283F84220A3
:102C6C007B68012283F843207B68012283F844208F
:102C7C007B68012283F845207B68012283F83D2084
:102C8C00002318460837BD4680BD000080B485B0CF
:102C9C0000AF78607B6893F83D30DBB2012B01D03C
:102CAC0001233AE07B68022283F83D207B681B6895
:102CBC00DA687B681B6842F00102DA607B681B688B
:102CCC00184A93420ED07B681B68B3F1804F09D031
:102CDC007B681B68144A934204D07B681B68134AB8
:102CEC00934211D17B681B689B6803F00703FB6060
:102CFC00FB68062B10D07B681B681A687B681B6806
:102D0C0042F001021A6007E07B681B681A687B6856
:102D1C001B6842F001021A60002318461437BD46A6
:102D2C0080BC7047002C01400004004000080040AB
:102D3C0080B582B000AF78607B68002B01D1012395
:102D4C0041E07B6893F83D30DBB2002B06D17B6809
:102D5C00002283F83C20786800F039F87B68022266
:102D6C0083F83D207B681A687B680433194610464B
:102D7C0000F086FB7B68012283F846207B680122E9
:102D8C0083F83E207B68012283F83F207B68012278
:102D9C0083F840207B68012283F841207B68012264
:102DAC0083F842207B68012283F843207B68012250
:102DBC0083F844207B68012283F845207B6801223C
:102DCC0083F83D20002318460837BD4680BD80B4EB
:102DDC0083B000AF786000BF0C37BD4680BC704735
:102DEC0080B584B000AF786039603B68002B09D1A6
:102DFC007B6893F83E30DBB2012B14BF0123002318
:102E0C00DBB222E03B68042B09D17B6893F83F309E
:102E1C00DBB2012B14BF01230023DBB215E03B68AE
:102E2C00082B09D17B6893F84030DBB2012B14BF1F
:102E3C0001230023DBB208E07B6893F84130DBB25E
:102E4C00012B14BF01230023DBB2002B01D0012383
:102E5C005EE03B68002B04D17B68022283F83E20A5
:102E6C0013E03B68042B04D17B68022283F83F20DB
:102E7C000BE03B68082B04D17B68022283F84020CE
:102E8C0003E07B68022283F841207B681B680122E7
:102E9C003968184600F074FD7B681B681E4A934223
:102EAC0007D17B681B685A6C7B681B6842F4004234
:102EBC005A647B681B68184A93420ED07B681B6867
:102ECC00B3F1804F09D07B681B68144A934204D03D
:102EDC007B681B68124A934211D17B681B689B6804
:102EEC0003F00703FB60FB68062B10D07B681B68A4
:102EFC001A687B681B6842F001021A6007E07B6865
:102F0C001B681A687B681B6842F001021A60002378
:102F1C0018461037BD4680BD002C0140000400400F
:102F2C000008004080B582B000AF78607B681B68F9
:102F3C001B6903F00203022B22D17B681B68DB6840
:102F4C0003F00203022B1BD17B681B686FF002029B
:102F5C001A617B6801221A777B681B689B6903F0F6
:102F6C000303002B03D0786800F06FFA05E0786853
:102F7C0000F062FA786800F071FA7B6800221A7728
:102F8C007B681B681B6903F00403042B22D17B684C
:102F9C001B68DB6803F00403042B1BD17B681B68E4
:102FAC006FF004021A617B6802221A777B681B6837
:102FBC009B6903F44073002B03D0786800F045FA4A
:102FCC0005E0786800F038FA786800F047FA7B681A
:102FDC0000221A777B681B681B6903F00803082B17
:102FEC0022D17B681B68DB6803F00803082B1BD11C
:102FFC007B681B686FF008021A617B6804221A77E1
:10300C007B681B68DB6903F00303002B03D0786833
:10301C0000F01BFA05E0786800F00EFA786800F012
:10302C001DFA7B6800221A777B681B681B6903F00A
:10303C001003102B22D17B681B68DB6803F0100394
:10304C00102B1BD17B681B686FF010021A617B6818
:10305C0008221A777B681B68DB6903F44073002B2A
:10306C0003D0786800F0F1F905E0786800F0E4F935
:10307C00786800F0F3F97B6800221A777B681B688C
:10308C001B6903F00103012B0ED17B681B68DB6805
:10309C0003F00103012B07D17B681B686FF0010261
:1030AC001A617868FEF758FA7B681B681B6903F095
:1030BC008003802B0ED17B681B68DB6803F08003D8
:1030CC00802B07D17B681B686FF080021A617868CF
:1030DC0000F0E1FC7B681B681B6903F04003402B8C
:1030EC000ED17B681B68DB6803F04003402B07D1D3
:1030FC007B681B686FF040021A61786800F0B7F9C2
:10310C007B681B681B6903F02003202B0ED17B68A6
:10311C001B68DB6803F02003202B07D17B681B683E
:10312C006FF020021A61786800F0ACFC00BF083721
:10313C00BD4680BD80B584B000AFF860B9607A60E0
:10314C00FB6893F83C30012B01D10223ACE0FB6807
:10315C00012283F83C207B680C2B00F29F8001A29B
:10316C0052F823F0A5310008A9320008A932000852
:10317C00A9320008E5310008A9320008A93200087C
:10318C00A932000827320008A9320008A932000829
:10319C00A932000867320008FB681B68B96818463A
:1031AC0000F0D0F9FB681B689A69FB681B6842F059
:1031BC0008029A61FB681B689A69FB681B6822F01D
:1031CC0004029A61FB681B689969BB681A69FB6801
:1031DC001B680A439A6162E0FB681B68B968184671
:1031EC0000F016FAFB681B689A69FB681B6842F4CE
:1031FC0000629A61FB681B689A69FB681B6822F481
:10320C0080629A61FB681B689969BB681B691A022A
:10321C00FB681B680A439A6141E0FB681B68B9684C
:10322C00184600F05FFAFB681B68DA69FB681B68DC
:10323C0042F00802DA61FB681B68DA69FB681B68FC
:10324C0022F00402DA61FB681B68D969BB681A6951
:10325C00FB681B680A43DA6121E0FB681B68B968EC
:10326C00184600F0A9FAFB681B68DA69FB681B6852
:10327C0042F40062DA61FB681B68DA69FB681B6860
:10328C0022F48062DA61FB681B68D969BB681B6930
:10329C001A02FB681B680A43DA6100E000BFFB6896
:1032AC00002283F83C20002318461037BD4680BD11
:1032BC0080B584B000AF786039607B6893F83C309F
:1032CC00012B01D10223B3E07B68012283F83C205F
:1032DC007B68022283F83D207B681B689B68FB603F
:1032EC00FB6823F07703FB60FB6823F47F43FB60F0
:1032FC007B681B68FA689A603B681B68B3F5005FD3
:10330C003ED0B3F5005F00F28780B3F5805F00F02C
:10331C008580B3F5805F7FD8702B1AD0702B7BD84B
:10332C00602B50D0602B77D8502B3CD0502B73D8BF
:10333C00402B58D0402B6FD8302B64D0302B6BD80F
:10334C00202B60D0202B67D8002B5CD0102B5AD0B0
:10335C0062E07B6818683B6899683B685A683B6810
:10336C00DB6800F0EEFA7B681B689B68FB60FB680F
:10337C0043F07703FB607B681B68FA689A604EE049
:10338C007B6818683B6899683B685A683B68DB68DF
:10339C0000F0D7FA7B681B689A687B681B6842F45C
:1033AC0080429A603BE07B6818683B6859683B68D0
:1033BC00DB681A4600F04EFA7B681B6850211846F1
:1033CC0000F0A5FA2BE07B6818683B6859683B68ED
:1033DC00DB681A4600F06CFA7B681B6860211846A3
:1033EC0000F095FA1BE07B6818683B6859683B68ED
:1033FC00DB681A4600F02EFA7B681B6840211846E1
:10340C0000F085FA0BE07B681A683B681B6819466C
:10341C00104600F07CFA02E000BF00E000BF7B68C1
:10342C00012283F83D207B68002283F83C20002396
:10343C0018461037BD4680BD80B483B000AF7860AD
:10344C0000BF0C37BD4680BC704780B483B000AF62
:10345C00786000BF0C37BD4680BC704780B483B029
:10346C0000AF786000BF0C37BD4680BC704780B49D
:10347C0083B000AF786000BF0C37BD4680BC70478E
:10348C0080B485B000AF786039607B681B68FB60E6
:10349C007B68294A93420BD07B68B3F1804F07D0ED
:1034AC007B68264A934203D07B68254A934208D115
:1034BC00FB6823F07003FB603B685B68FA6813439E
:1034CC00FB607B681C4A93420BD07B68B3F1804F46
:1034DC0007D07B68194A934203D07B68184A934201
:1034EC0008D1FB6823F44073FB603B68DB68FA6827
:1034FC001343FB60FB6823F080023B685B6913435A
:10350C00FB607B68FA681A603B689A687B68DA62D1
:10351C003B681A687B689A627B68074A934203D1BE
:10352C003B681A697B681A637B6801225A6100BF89
:10353C001437BD4680BC7047002C0140000400408D
:10354C000008004080B487B000AF786039607B68B9
:10355C001B6A23F001027B681A627B681B6A7B6121
:10356C007B685B683B617B689B69FB60FB6823F055
:10357C007003FB60FB6823F00303FB603B681B6874
:10358C00FA681343FB607B6923F002037B613B68A1
:10359C009B687A6913437B617B681C4A93420CD10C
:1035AC007B6923F008037B613B68DB687A69134312
:1035BC007B617B6923F004037B617B68134A934234
:1035CC0011D13B6923F480733B613B6923F4007395
:1035DC003B613B685B693A6913433B613B689B69A0
:1035EC003A6913433B617B683A695A607B68FA68B5
:1035FC009A613B685A687B685A637B687A691A627D
:10360C0000BF1C37BD4680BC704700BF002C01407A
:10361C0080B487B000AF786039607B681B6A23F098
:10362C0010027B681A627B681B6A7B617B685B6833
:10363C003B617B689B69FB60FB6823F4E043FB60A8
:10364C00FB6823F44073FB603B681B681B02FA6841
:10365C001343FB607B6923F020037B613B689B6811
:10366C001B017A6913437B617B681D4A93420DD120
:10367C007B6923F080037B613B68DB681B017A6903
:10368C0013437B617B6923F040037B617B68144AA5
:10369C00934213D13B6923F480633B613B6923F470
:1036AC0000633B613B685B699B003A6913433B6178
:1036BC003B689B699B003A6913433B617B683A69A1
:1036CC005A607B68FA689A613B685A687B689A63AF
:1036DC007B687A691A6200BF1C37BD4680BC704794
:1036EC00002C014080B487B000AF786039607B68F3
:1036FC001B6A23F480727B681A627B681B6A7B618D
:10370C007B685B683B617B68DB69FB60FB6823F073
:10371C007003FB60FB6823F00303FB603B681B68D2
:10372C00FA681343FB607B6923F400737B613B688D
:10373C009B681B027A6913437B617B681D4A934229
:10374C000DD17B6923F400637B613B68DB681B0252
:10375C007A6913437B617B6923F480637B617B68AB
:10376C00144A934213D13B6923F480533B613B6968
:10377C0023F400533B613B685B691B013A691343BB
:10378C003B613B689B691B013A6913433B617B6856
:10379C003A695A607B68FA68DA613B685A687B68F8
:1037AC00DA637B687A691A6200BF1C37BD4680BC3D
:1037BC00704700BF002C014080B487B000AF786028
:1037CC0039607B681B6A23F480527B681A627B68C1
:1037DC001B6A3B617B685B687B617B68DB69FB60B8
:1037EC00FB6823F4E043FB60FB6823F44073FB604D
:1037FC003B681B681B02FA681343FB603B6923F4AC
:10380C0000533B613B689B681B033A6913433B6164
:10381C007B680F4A934209D17B6923F480437B6117
:10382C003B685B699B017A6913437B617B687A69AE
:10383C005A607B68FA68DA613B685A687B681A647C
:10384C007B683A691A6200BF1C37BD4680BC704762
:10385C00002C014080B487B000AFF860B9607A608A
:10386C00FB681B6A7B61FB681B6A23F00102FB6827
:10387C001A62FB689B693B613B6923F0F0033B6177
:10388C007B681B013A6913433B617B6923F00A0394
:10389C007B617A69BB6813437B61FB683A699A6107
:1038AC00FB687A691A6200BF1C37BD4680BC704742
:1038BC0080B487B000AFF860B9607A60FB681B6AAF
:1038CC0023F01002FB681A62FB689B697B61FB6842
:1038DC001B6A3B617B6923F470437B617B681B0330
:1038EC007A6913437B613B6923F0A0033B61BB689E
:1038FC001B013A6913433B61FB687A699A61FB6867
:10390C003A691A6200BF1C37BD4680BC704780B450
:10391C0085B000AF786039607B689B68FB60FB68A2
:10392C0023F07003FB603A68FB68134343F0070312
:10393C00FB607B68FA689A6000BF1437BD4680BC98
:10394C00704780B487B000AFF860B9607A603B60B4
:10395C00FB689B687B617B6923F47F437B613B68DD
:10396C001A027B681A43BB6813437A6913437B6161
:10397C00FB687A699A6000BF1C37BD4680BC7047F3
:10398C0080B487B000AFF860B9607A60BB6803F0B0
:10399C001F03012202FA03F37B61FB681A6A7B693D
:1039AC00DB431A40FB681A62FB681A6ABB6803F0B7
:1039BC001F03796801FA03F31A43FB681A6200BF0C
:1039CC001C37BD4680BC704780B485B000AF7860B2
:1039DC0039607B6893F83C30012B01D1022346E01F
:1039EC007B68012283F83C207B68022283F83D200F
:1039FC007B681B685B68FB607B681B689B68BB60B3
:103A0C00FB6823F07003FB603B681B68FA68134388
:103A1C00FB607B681B68FA685A607B681B68164AF7
:103A2C0093420ED07B681B68B3F1804F09D07B6842
:103A3C001B68124A934204D07B681B68104A93425D
:103A4C000CD1BB6823F08003BB603B685B68BA6831
:103A5C001343BB607B681B68BA689A607B68012261
:103A6C0083F83D207B68002283F83C200023184615
:103A7C001437BD4680BC7047002C01400004004048
:103A8C000008004080B483B000AF786000BF0C37F2
:103A9C00BD4680BC704780B483B000AF786000BF77
:103AAC000C37BD4680BC704780B582B000AF7860E3
:103ABC007B68002B01D101233FE07B6893F83D30FC
:103ACC00DBB2002B06D17B68002283F83C2078689F
:103ADC00FDF7AEFF7B68242283F83D207B681B68D2
:103AEC00DA687B681B6822F40052DA60786800F0B0
:103AFC0025FC7B681B681A697B681B6822F4904262
:103B0C001A617B681B685A697B681B6822F02A0261
:103B1C005A617B681B68DA687B681B6842F4005248
:103B2C00DA607B6800221A647B68202283F83D20CF
:103B3C007B68202283F83E20002318460837BD46B8
:103B4C0080BD80B58AB002AFF860B9603B601346A7
:103B5C00FB8000237B61FB6893F83D30DBB2202BAC
:103B6C007CD1BB68002B02D0FB88002B01D1012338
:103B7C0075E0FB6893F83C30012B01D102236EE019
:103B8C00FB68012283F83C20FB6800221A64FB6866
:103B9C00212283F83D20FEF793F87861FB68FA88C0
:103BAC009A84FB68FA88DA84FB689B68B3F5805FBB
:103BBC0008D1FB681B69002B04D10023FB61BB6897
:103BCC00BB6103E0BB68FB610023BB61FB680022A7
:103BDC0083F83C202AE03B6800937B69002280211B
:103BEC00F86800F011FA0346002B01D0032336E0ED
:103BFC00FB69002B0BD1BB691B881A46FB681B6841
:103C0C00C2F308025A60BB690233BB6107E0FB696F
:103C1C001A78FB681B685A60FB690133FB61FB680F
:103C2C00DB8C9BB2013B9AB2FB68DA84FB68DB8CC1
:103C3C009BB2002BCFD13B6800937B6900224021C3
:103C4C00F86800F0E1F90346002B01D0032306E0ED
:103C5C00FB68202283F83D20002300E00223184655
:103C6C002037BD4680BD000080B58AB000AF7860BB
:103C7C007B681B681B687B627B681B68DB683B622C
:103C8C007B681B685B69FB610023BB6100237B6164
:103C9C007B6A03F00F03BB61BB69002B0DD17B6A00
:103CAC0003F02003002B08D03B6A03F02003002B09
:103CBC0003D0786800F099FA7BE1BB69002B00F027
:103CCC00B180FB6903F00103002B05D13B6A03F4BF
:103CDC009073002B00F0A6807B6A03F00103002B8D
:103CEC000AD03B6A03F48073002B05D07B681B6CF5
:103CFC0043F001027B681A647B6A03F00403002B17
:103D0C000AD0FB6903F00103002B05D07B681B6C08
:103D1C0043F002027B681A647B6A03F00203002BF7
:103D2C000AD0FB6903F00103002B05D07B681B6CE8
:103D3C0043F004027B681A647B6A03F00803002BCF
:103D4C000FD03B6A03F02003002B04D1FB6903F076
:103D5C000103002B05D07B681B6C43F008027B68C9
:103D6C001A647B681B6C002B00F01E817B6A03F0CD
:103D7C002003002B07D03B6A03F02003002B02D05A
:103D8C00786800F032FA7B681B685B6903F04003CB
:103D9C00002B14BF01230023DBB27B617B681B6CFF
:103DAC0003F00803002B02D17B69002B31D078681B
:103DBC0000F074F97B681B685B6903F04003002B0F
:103DCC0023D07B681B685A697B681B6822F0400211
:103DDC005A617B689B6B002B13D07B689B6B764A7C
:103DEC005A637B689B6B1846FEF7BCF80346002BA6
:103DFC0016D07B689B6B5B6B7A68926B104698470E
:103E0C000EE0786800F0ECF80AE0786800F0E8F86A
:103E1C0006E0786800F0E4F87B6800221A64C3E0DE
:103E2C0000BFC1E07B681B6B012B40F0A1807B6A5B
:103E3C0003F01003002B00F09B803B6A03F010038F
:103E4C00002B00F095800023FB607B681B681B68CF
:103E5C00FB607B681B685B68FB60FB687B681B68AE
:103E6C005B6903F04003002B4ED07B689B6B1B6897
:103E7C005B683B823B8A002B00F098807B689B8DB3
:103E8C003A8A9A4280F092807B683A8ADA857B681B
:103E9C009B6B9B69202B2BD07B681B68DA687B683B
:103EAC001B6822F48072DA607B681B685A697B6835
:103EBC001B6822F001025A617B681B685A697B6897
:103ECC001B6822F040025A617B68202283F83E2056
:103EDC007B6800221A637B681B68DA687B681B6846
:103EEC0022F01002DA607B689B6B1846FDF7FFFF2F
:103EFC007B689A8D7B68DB8D9BB2D31A9BB219467B
:103F0C00786800F076F851E07B689A8D7B68DB8DE1
:103F1C009BB2D31A7B827B68DB8D9BB2002B47D084
:103F2C007B8A002B44D07B681B68DA687B681B6833
:103F3C0022F49072DA607B681B685A697B681B6894
:103F4C0022F001025A617B68202283F83E207B68B4
:103F5C0000221A637B681B68DA687B681B6822F096
:103F6C001002DA607B8A1946786800F042F81FE08C
:103F7C007B6A03F08003002B08D03B6A03F08003BC
:103F8C00002B03D0786800F0C9F812E07B6A03F0CC
:103F9C004003002B0DD03B6A03F04003002B08D0EC
:103FAC00786800F00AF904E000BF02E000BF00E00E
:103FBC0000BF2837BD4680BD0141000880B483B0E6
:103FCC0000AF786000BF0C37BD4680BC704780B432
:103FDC0083B000AF786000BF0C37BD4680BC704723
:103FEC0080B483B000AF786000BF0C37BD4680BC96
:103FFC00704780B483B000AF78600B467B8000BF05
:10400C000C37BD4680BC704780B584B000AFF860FB
:10401C00B9603B601346FB712CE0BB69B3F1FF3F09
:10402C0028D0BB69002B07D0FDF74AFE02463B683F
:10403C00D31ABA699A421DD2FB681B68DA68FB680E
:10404C001B6822F4D072DA60FB681B685A69FB6843
:10405C001B6822F001025A61FB68202283F83D2084
:10406C00FB68202283F83E20FB68002283F83C206A
:10407C0003230FE0FB681B681A68BB681340BA681F
:10408C009A420CBF01230023DBB21A46FB799A42F9
:10409C00C3D0002318461037BD4680BD80B483B012
:1040AC0000AF78607B681B68DA687B681B6822F459
:1040BC009072DA607B681B685A697B681B6822F017
:1040CC0001025A617B681B6B012B07D17B681B6853
:1040DC00DA687B681B6822F01002DA607B682022A9
:1040EC0083F83E207B6800221A6300BF0C37BD4664
:1040FC0080BC704780B584B000AF78607B685B6A29
:10410C00FB60FB680022DA85FB680022DA84F86821
:10411C00FFF766FF00BF1037BD4680BD80B485B089
:10412C0000AF78607B6893F83D30DBB2212B3ED139
:10413C007B689B68B3F5805F14D17B681B69002B8F
:10414C0010D17B681B6AFB60FB681B881A467B6876
:10415C001B68C2F308025A607B681B6A9A1C7B6856
:10416C001A6208E07B681B6A591C7A6811621A781B
:10417C007B681B685A607B68DB8C9BB2013B9BB2F3
:10418C007A681946D184002B0FD17B681B68DA68DA
:10419C007B681B6822F08002DA607B681B68DA6837
:1041AC007B681B6842F04002DA60002300E00223C7
:1041BC0018461437BD4680BC704780B582B000AF3E
:1041CC0078607B681B68DA687B681B6822F04002A9
:1041DC00DA607B68202283F83D207868FFF7EEFEDA
:1041EC00002318460837BD4680BD80B586B000AFA9
:1041FC0078607B6893F83E30DBB2222B40F09980DC
:10420C007B689B68B3F5805F17D17B681B69002BBB
:10421C0013D100237B617B689B6A3B617B681B68C5
:10422C005B689BB2C3F308039AB23B691A807B6844
:10423C009B6A9A1C7B689A6226E07B689B6A7B610E
:10424C0000233B617B689B68B3F5805F07D07B687C
:10425C009B68002B0AD17B681B69002B06D17B68FD
:10426C001B685B68DAB27B691A7008E07B681B68B4
:10427C005B68DBB203F07F03DAB27B691A707B6890
:10428C009B6A5A1C7B689A627B68DB8D9BB2013BF4
:10429C009BB27A681946D185002B48D17B681B6884
:1042AC00DA687B681B6822F02002DA607B681B6886
:1042BC00DA687B681B6822F48072DA607B681B68A2
:1042CC005A697B681B6822F001025A617B682022C4
:1042DC0083F83E207B681B6B012B23D17B6800226B
:1042EC001A637B681B68DA687B681B6822F0100213
:1042FC00DA607B681B681B6803F01003102B0AD173
:10430C000023FB607B681B681B68FB607B681B6879
:10431C005B68FB60FB687B689B8D19467868FFF7D0
:10432C0068FE02E07868FFF752FE002302E00023EB
:10433C0000E0022318461837BD4680BD80B584B016
:10434C0000AF78607B681B681B6923F440517B6865
:10435C00DA687B681B680A431A617B689A687B6819
:10436C001B691A437B685B691343BB607B681B68E2
:10437C00DB6823F4B05323F00C037A681268B96835
:10438C000B43D3607B681B685B6923F440717B68CB
:10439C009A697B681B680A435A617B681B682C4AC4
:1043AC00934203D1FEF7F0FBF86002E0FEF7D8FB76
:1043BC00F860FA6813469B0013449A001A447B6811
:1043CC005B689B00B2FBF3F3224AA2FB03235B095D
:1043DC001901FA6813469B0013449A001A447B682F
:1043EC005B689B00B2FBF3F21A4BA3FB02035B0965
:1043FC00642000FB03F3D31A1B013233154AA2FBD2
:10440C0003235B0903F0F0031944FA6813469B007D
:10441C0013449A001A447B685B689B00B2FBF3F26E
:10442C000C4BA3FB02035B09642000FB03F3D31AC0
:10443C001B013233074AA2FB03235B0903F00F0273
:10444C007B681B680A449A6000BF1037BD4680BD6C
:10445C00003801401F85EB51014B1868704700BFB5
:10446C002C00002070B500260C4D0D4C641BA410C4
:10447C00A64209D100F05CFC00260A4D0A4C641BD4
:10448C00A410A64205D170BD55F8043B98470136DF
:10449C00EEE755F8043B98470136F2E7304E00083A
:1044AC00304E0008304E0008344E000803460244DB
:1044BC00934200D1704703F8011BF9E70EB46FF07B
:1044CC00004100B59CB01DAB029006900791049181
:1044DC000848094953F8042B0591006802A9019377
:1044EC0000F068F80022029B1A701CB05DF804EB17
:1044FC0003B070472C0000200802FFFF2DE9F047A5
:10450C008E6882469E420C4690461F4638D88A8951
:10451C0012F4906F32D0256809690133A5EB0109BB
:10452C0065694B4405EB450505EBD5756D109D4252
:10453C0038BF1D46530531D5294600F053FB0646BE
:10454C0050B90C234FF0FF30CAF80030A38943F068
:10455C004003A381BDE8F0874A46216900F0CEFAFA
:10456C00A38923F4906343F08003A38126614E4416
:10457C0026603E466561A5EB0905A560BE4200D9E3
:10458C003E4632464146206800F0C6FAA3682268CF
:10459C009B1B32440020A3602260DBE72A4600F01C
:1045AC007BFB06460028E1D15046216900F0CEFA8B
:1045BC00C7E700002DE9F04F98468B8907461B068C
:1045CC000D4614469DB00ED50B6963B9402100F021
:1045DC0009FB2860286120B90C233B604FF0FF30A9
:1045EC00D1E040236B610023099320238DF82930FF
:1045FC0030234FF00109CDF80C80DFF8A4818DF841
:10460C002A3023469A4613F8012B0AB1252AF9D1F0
:10461C00BAEB040B0BD05B46224629463846FFF713
:10462C006DFF013000F0AA80099A5A4409929AF859
:10463C000030002B00F0A28000234FF0FF32CDE9B8
:10464C0005230AF1010A049307938DF853301A934A
:10465C005446052214F8011B514800F041FA049A03
:10466C00D8B9D00644BF20238DF85330110744BF6E
:10467C002B238DF853309AF800302A2B15D0544642
:10468C0000204FF00A0C079A214611F8013B303BF1
:10469C00092B4ED9B0B1079214E0A0EB080309FA2C
:1046AC0003F31343A2460493D2E7039B191D1B6823
:1046BC000391002BBBBF5B4242F0020207930793AE
:1046CC00B8BF049223782E2B0CD163782A2B35D1CA
:1046DC00039B02341A1D1B680392002BB8BF4FF0CA
:1046EC00FF330593DFF8C8A003225046217800F071
:1046FC00F7F940B14023A0EB0A0003FA00F0049B49
:10470C0001340343049314F8011B062225488DF849
:10471C00281000F0E5F9002838D0234B1BBB039B75
:10472C00073323F0070308330393099B334409939E
:10473C0067E70C4601200CFB0232A5E700234FF083
:10474C000A0C194601340593204610F8012B303A17
:10475C00092A03D9002BC5D00591C3E704460123D0
:10476C000CFB0121F0E703AB00932A4638460F4BB4
:10477C0004A9AFF30080421C0646D6D1AB895B0678
:10478C003FF52CAF09981DB0BDE8F08F03AB00933B
:10479C002A463846054B04A900F07CF8EBE700BF2D
:1047AC00FC4D0008064E00080000000009450008FA
:1047BC00024E00082DE9F047164699468A680B69A7
:1047CC0007469342B8BF1346336091F843200C461A
:1047DC00DDF820800AB1013333602368990642BFAB
:1047EC00336802333360256815F0060506D104F1F1
:1047FC00190AE36832689B1AAB4228DC94F8432010
:10480C00131E226818BF012392062DD44946384640
:10481C0004F14302C047013020D02368E56803F05F
:10482C000603042B18BF002532684FF00006A3685E
:10483C0008BFAD1A226908BF25EAE5759342C4BFCB
:10484C009B1AED181A34B5421AD1002008E0012346
:10485C00524649463846C047013003D14FF0FF302D
:10486C00BDE8F0870135C4E73020E11881F843003A
:10487C005A1C94F845102244023382F84310C5E7C1
:10488C000123224649463846C0470130E6D001365E
:10489C00D9E700002DE9FF470C46277E9146782F7B
:1048AC0080469A460C9904F1430207D8622F0AD825
:1048BC00002F00F0D980582F00F0A48004F142069C
:1048CC0084F842703AE0A7F16303152BF6D801A0E7
:1048DC0050F823F0394900084D490008C948000830
:1048EC00C9480008C9480008C94800084D490008D3
:1048FC00C9480008C9480008C9480008C948000848
:10490C005B4A00087D4900083D4A0008C948000878
:10491C00C94800087D4A0008C94800087D490008BC
:10492C00C9480008C9480008454A00080B6804F14A
:10493C0042061A1D1B680A6084F842300123A4E069
:10494C00256808682E0600F104030AD505680B607B
:10495C00002D03DA2D236D4284F843300A235E4880
:10496C0019E015F0400F05680B6018BF2DB2EFE78A
:10497C000B682568181D0860280601D51D6802E023
:10498C006906FBD51D886F2F0CBF08230A235248DC
:10499C00002184F843106668002EA8BF2168A66029
:1049AC00A4BF21F0040121600DB9002E4DD0164694
:1049BC00B5FBF3F103FB1157C75D06F8017D2F46DC
:1049CC00BB420D46F4D9082B0BD12368DF0708D561
:1049DC00236961689942DEBF302306F8013C06F179
:1049EC00FF36921B22614B4621464046CDF800A073
:1049FC0003AAFFF7DFFE01304CD14FF0FF3004B0BB
:104A0C00BDE8F087344884F845700E68236856F882
:104A1C00045B1F060E6014D5D90744BF43F0200376
:104A2C0023601DB9236823F0200323601023AFE714
:104A3C00236843F0200323607823284884F845300A
:104A4C00E3E75E0648BFADB2E6E71646BBE70B6888
:104A5C0026681D1D60690D6035061B6801D5186040
:104A6C0002E07106FBD51880002316462361BAE7D5
:104A7C000B681A1D0A601E6800213046626800F03F
:104A8C002FF808B1801B606063682361002384F8F1
:104A9C004330A8E73246494640462369D0470130A7
:104AAC00ABD023689B0713D4E068039B9842B8BF34
:104ABC001846A4E70123324649464046D047013008
:104ACC009BD00135E36803995B1AAB42F2DCEBE750
:104ADC00002504F11906F5E70D4E00081E4E0008DE
:104AEC00034610B5C9B202449342184601D10020C6
:104AFC0003E0047801338C42F6D110BD0A44914294
:104B0C0000F1FF3300D1704710B511F8014B914201
:104B1C0003F8014FF9D110BD884210B501EB020426
:104B2C0002D98442234607D8431EA14208D011F86B
:104B3C00012B03F8012FF8E7014602448A4200D109
:104B4C0010BD13F8014D02F8014DF7E738B50546D5
:104B5C00002943D051F8043C0C1F002BB8BFE418BB
:104B6C0000F0D0F81E4A1368104633B96360146025
:104B7C002846BDE8384000F0CBB8A3420AD92168DA
:104B8C006218934201BF1A685B6852182260636016
:104B9C000460EDE71A465B680BB1A342FAD91168C1
:104BAC005018A0420BD12068014450188342116068
:104BBC00DED118685B68014411605360D8E702D9F4
:104BCC000C232B60D4E7206821188B4201BF196895
:104BDC005B680918216063605460C9E738BD00BF89
:104BEC006C010020F8B5CD1C25F0030508350C2D03
:104BFC0038BF0C25002D064601DBA94203D90C2336
:104C0C0033600020F8BD00F07DF821490A68144695
:104C1C009CB9204F3B6823B92146304600F062F81E
:104C2C0038602946304600F05DF8431C23D10C2334
:104C3C003046336000F06CF8E3E723685B1B17D455
:104C4C000B2B03D923601C44256004E06368A2424B
:104C5C000CBF0B605360304600F05AF804F10B00A7
:104C6C00231D20F00700C21ACCD01B1AA350C9E791
:104C7C0022466468CCE7C41C24F00304A042E3D0B1
:104C8C00211A304600F02EF80130DDD1CFE700BFFD
:104C9C006C01002070010020F8B5074614460E4642
:104CAC0021B91146BDE8F840FFF79CBF22B9FFF7C8
:104CBC004DFF25462846F8BD00F030F8A0420FD233
:104CCC0021463846FFF78EFF05460028F2D03146C4
:104CDC002246FFF713FF31463846FFF737FFE9E767
:104CEC003546E7E738B50023054D044608462B60EA
:104CFC00FCF72CFF431C02D12B6803B1236038BD99
:104D0C004C020020014800F011B800BF54020020F2
:104D1C00014800F00CB800BF5402002051F8043CCC
:104D2C00181F002BBCBF0B58C0187047704770473A
:104D3C00F8B500BFF8BC08BC9E467047F8B500BF7C
:084D4C00F8BC08BC9E4670474C
:104D540021375345473A25643A54464C4947485409
:104D640031230D0A0000000021375345473A5741CB
:104D740049543A54464C4947485431230D0A0000DB
:104D840021375345473A25643A54464C49474854D9
:104D940032230D0A0000000021375345473A57419A
:104DA40049543A54464C4947485432230D0A0000AA
:104DB400215245443A25643A475245454E3A2564C2
:104DC4003A59454C4C4F573A2564230D0A000000CC
:104DD40002030405060708090A0B0C0D0E0F101038
:104DE4000000000000000000010203040607080997
:104DF4000000000001020304232D302B2000686C06
:104E04004C006566674546470030313233343536E9
:104E14003738394142434445460030313233343522
:0C4E24003637383961626364656600004F
:044E30003101000844
:044E34000D01000864
:104E380001010101FFFFFFFF10270000B80B000070
:104E4800581B000010270000B80B0000581B00007A
:104E58000024F400100000000100000030000020D1
:104E6800000000000000000000000000000000003A
:104E7800000000000000000000000000000000002A
:104E8800000000000000000000000000000000001A
:104E9800000000000000000000000000000000000A
:104EA80000000000000000000000000000000000FA
:104EB80000000000000000000000000000000000EA
:0400000508001BD103
:00000001FF
